:0400000007EF00F016
:0A000800708203ED08F084EF0CF0A5
:0510000000256900005D
:101006000600FACF66F0FBCF67F0D9CF68F0DACFEB
:1010160069F0F3CF6AF0F4CF6BF0F2A815EF08F0A1
:1010260017EF08F020EF08F0F2A21CEF08F01EEF11
:1010360008F020EF08F0D1EC0BF0F0A625EF08F051
:1010460027EF08F030EF08F0F0A02CEF08F02EEFB5
:1010560008F030EF08F0E5EC0CF0F0A835EF08F0FA
:1010660037EF08F040EF08F0F0A23CEF08F03EEF53
:1010760008F040EF08F0B6EC0CF0F2A645EF08F0E9
:1010860047EF08F051EF08F0F2A04CEF08F04EEFF2
:1010960008F051EF08F0000E06EC0BF09DAC56EF91
:1010A60008F058EF08F061EF08F09EAC5DEF08F02D
:1010B6005FEF08F061EF08F0D5EC0DF0F2AA66EFED
:1010C60008F068EF08F071EF08F0F2A46DEF08F091
:1010D6006FEF08F071EF08F0B9EC0DF09DA076EF18
:1010E60008F078EF08F081EF08F09EA07DEF08F099
:1010F6007FEF08F081EF08F0B1EC0DF09DA286EFCE
:1011060008F088EF08F091EF08F09EA28DEF08F046
:101116008FEF08F091EF08F031EC0DF0A0A296EFFA
:1011260008F098EF08F0A1EF08F0A1A29DEF08F0F3
:101136009FEF08F0A1EF08F014EC0DF06BC0F4FF80
:101146006AC0F3FF69C0DAFF68C0D9FF67C0FBFF5A
:1011560066C0FAFF70921100000E6D6E6C50D8B426
:10116600B7EF08F0B9EF08F0D8EF08F06C50D96E79
:10117600DA6ADF50070B0001A26F050EA261C6EF07
:1011860008F0C8EF08F0D8EF08F06C50D96EDA6AAC
:10119600DF30E832E832070BA26F070EA265D6EF02
:1011A60008F0D8EF08F031EF09F0010E6D6E51EF3F
:1011B60009F06C50D96EDA6ADF30E832E832070B94
:1011C600A26F010EA36FA22BEBEF08F0D890A33706
:1011D600A22FE9EF08F00001A351FF0AA46F6C509B
:1011E600D96EDA6ADF50070B020DF350440FD96E41
:1011F600DA6ADECFA5F0DDCFA6F0A5C0D9FFA6C07E
:10120600DAFFA451DF1651EF09F06C50D96EDA6A95
:10121600DF30E832E832070BA26F010EA36FA22B74
:1012260017EF09F0D890A337A22F15EF09F06C50ED
:10123600D96EDA6ADF50070B020DF350440FD96EF0
:10124600DA6ADECFA4F0DDCFA5F0A4C0D9FFA5C031
:10125600DAFF0001A351DF1251EF09F06C50D96E8D
:10126600DA6ADFBC39EF09F03CEF09F0010E3DEF19
:1012760009F0000EA26FA36BA351000AD8B446EF83
:1012860009F0D8EF08F0A251000AD8B4DCEF08F054
:10129600010AD8B408EF09F0D8EF08F06D50120033
:1012A600000E6E6E6C50D8B45BEF09F05DEF09F07E
:1012B6007CEF09F06C50D96EDA6ADF50070B00013B
:1012C600A26F050EA2616AEF09F06CEF09F07CEFE0
:1012D60009F06C50D96EDA6ADF30E832E832070B73
:1012E600A26F070EA2657AEF09F07CEF09F0D5EF41
:1012F60009F0010E6E6EEAEF09F06C50D96EDA6AEB
:10130600DF30E832E832070BA26F010EA36FA22B83
:101316008FEF09F0D890A337A22F8DEF09F06C500C
:10132600D96EDA6ADF50070B020DF3503A0FD96E09
:10133600DA6ADECFA4F0DDCFA5F0A4C0D9FFA5C040
:10134600DAFF0001A351DF12EAEF09F06C50D96E03
:10135600DA6ADF30E832E832070BA26F010EA36FBC
:10136600A22BB8EF09F0D890A337A22FB6EF09F059
:101376000001A351FF0AA46F6C50D96EDA6ADF50E0
:10138600070B020DF3503A0FD96EDA6ADECFA5F0DD
:10139600DDCFA6F0A5C0D9FFA6C0DAFFA451DF169F
:1013A600EAEF09F06D50A26FA36BA351000AD8B4FF
:1013B600DFEF09F07CEF09F0A251000AD8B4A9EFDB
:1013C60009F0010AD8B480EF09F07CEF09F06E50FD
:1013D60012005D50D8B4F2EF09F0F4EF09F012EF05
:1013E6000AF05D50D96EDA6ADF50070B5F6E050EA4
:1013F6005F6000EF0AF002EF0AF012EF0AF05D50AC
:10140600D96EDA6ADF30E832E832070B5F6E070E14
:101416005F6410EF0AF012EF0AF067EF0AF07CEF54
:101426000AF05D50D96EDA6ADF30E832E832070B2F
:101436005F6E010E606E5F2A23EF0AF0D890603669
:101446005F2E21EF0AF05D50D96EDA6ADF50070B86
:10145600020DF3503A0FD96EDA6ADECF61F0DDCFB6
:1014660062F061C0D9FF62C0DAFF6050DF127CEF24
:101476000AF05D50D96EDA6ADF30E832E832070BDF
:101486005F6E010E606E5F2A4BEF0AF0D8906036F1
:101496005F2E49EF0AF06050FF0A616E5D50D96E0B
:1014A600DA6ADF50070B020DF3503A0FD96EDA6A8B
:1014B600DECF62F0DDCF63F062C0D9FF63C0DAFF32
:1014C6006150DF167CEF0AF05E505F6E606A605016
:1014D600000AD8B471EF0AF012EF0AF05F50000A62
:1014E600D8B43CEF0AF0010AD8B414EF0AF012EFB0
:1014F6000AF012006E50D8A483EF0AF085EF0AF0C6
:1015060087EF0AF005EF0BF0B190A192A0826E5022
:10151600D96EDA6ADECF07F0DDCF08F0F28EF28CF4
:101526006E50D96EDA6A050ED926DF50030B00011C
:10153600A26FA23BB150A219CF0BA219B16E6E5089
:10154600D96EDA6A050ED926DFBCACEF0AF0AEEF2B
:101556000AF0B1EF0AF0B19EBEEF0AF06E50D96EF6
:10156600DA6A050ED926DFACBBEF0AF0BDEF0AF04A
:10157600BEEF0AF0B18E6EC06CF00FEC0CF06E5040
:10158600D96EDA6A030ED926DECF6CF0DDCF6DF0A8
:10159600C1EC0DF06E50D96EDA6A030ED926DECF95
:1015A60005F0DDCF06F0E3EF0AF0B19CB19604EF4B
:1015B6000BF0B19CB18604EF0BF0B18C04EF0BF08D
:1015C6006E50D96EDA6A050ED926DF30E832030B83
:1015D6000001A26FA36BA351000AD8B4F5EF0AF07D
:1015E60004EF0BF0A251000AD8B4D8EF0AF0010AB2
:1015F600D8B4DCEF0AF0110AD8B4E0EF0AF004EF31
:101606000BF0B1801200656EF2906504D8A40EEF5F
:101616000BF010EF0BF072EF0BF05A0E5D6E7DECD7
:101626000BF0050E646E0F0E636EF10EE82EFED7FC
:10163600632EFCD7642EFAD700005A0E5D6E7DEC41
:101646000BF0050E646E0F0E636EF10EE82EFED7DC
:10165600632EFCD7642EFAD700005C0E5D6E7DEC1F
:101666000BF0050E646E0F0E636EF10EE82EFED7BC
:10167600632EFCD7642EFAD700005C0E5D6E7DECFF
:101686000BF0050E646E0F0E636EF10EE82EFED79C
:10169600632EFCD7642EFAD700005B0E5D6E7DECE0
:1016A6000BF0050E646E0F0E636EF10EE82EFED77C
:1016B600632EFCD7642EFAD700005B0E5D6E7DECC0
:1016C6000BF0050E646E0F0E636EF10EE82EFED75C
:1016D600632EFCD7642EFAD700007CEF0BF0655022
:1016E600D8A478EF0BF07AEF0BF07CEF0BF010EF4D
:1016F6000BF01200000E626E5D50D8B485EF0BF051
:1017060087EF0BF0A5EF0BF05D50D96EDA6ADF506C
:10171600070B5E6E050E5E6093EF0BF095EF0BF018
:10172600A5EF0BF05D50D96EDA6ADF30E832E832A9
:10173600070B5E6E070E5E64A3EF0BF0A5EF0BF0D2
:10174600A9EF0BF0010E626ECFEF0BF05D50D96E74
:10175600DA6ADF30E832E832070B5E6E010E5F6E42
:101766005E2AB8EF0BF0D8905F365E2EB6EF0BF020
:101776005D50D96EDA6ADF50070B020DF3503A0F4F
:10178600D96EDA6ADECF60F0DDCF61F060C0D9FFD6
:1017960061C0DAFF5F50DF1A62501200F2925C0EEF
:1017A6005D6E7DEC0BF00B0E656E260E646E5E0EA6
:1017B600E82EFED7642EFCD7652EFAD75B0E5D6E3B
:1017C6007DEC0BF00B0E656E260E646E5E0EE82E3B
:1017D600FED7642EFCD7652EFAD75A0E5D6E7DECC9
:1017E6000BF00B0E656E260E646E5E0EE82EFED7AF
:1017F600642EFCD7652EFAD719501A10D8B406EF06
:101806000CF008EF0CF00EEF0CF05C0E5D6E000EA7
:101816005E6EECEC09F012006C50D96EDA6A050EB9
:10182600D926DFBA19EF0CF01BEF0CF01EEF0CF007
:10183600B19249EF0CF06C50D96EDA6A050ED926D2
:10184600DFAA28EF0CF02AEF0CF049EF0CF0B1827A
:101856006C50D96EDA6A050ED926DFB835EF0CF072
:1018660037EF0CF03AEF0CF0B19449EF0CF06C50F6
:10187600D96EDA6A050ED926DFA844EF0CF046EFDA
:101886000CF049EF0CF0B18449EF0CF01200000E99
:101896000001A86F6F50D8B453EF0CF055EF0CF061
:1018A60073EF0CF06F50D96EDA6ADF50070BA76F33
:1018B600050EA76161EF0CF063EF0CF073EF0CF00F
:1018C6006F50D96EDA6ADF30E832E832070BA76F5D
:1018D600070EA76571EF0CF073EF0CF077EF0CF0C5
:1018E600010EA86F81EF0CF06FC06CF0AFEC08F042
:1018F6006FC06CF0000E6D6E53EC09F00001A8513C
:101906001200400EF66E1B0EF76E000EF86E00EE1D
:1019160080F010EE22F00900F5CFEEFFE550E15021
:10192600FAE1C40EF66E1A0EF76E000EF86E00EEB1
:1019360030F010EE2DF00900F5CFEEFFE550E15046
:10194600FAE10001B46BB36BB26BB16BB06BAF6B0A
:1019560000EE01F02F0EEE6AE806FDE1709070923F
:1019660000014AEF0DF0F0925A0E5D6E7DEC0BF021
:101976000B0E646E260E636E5E0EE82EFED7632E89
:10198600FCD7642EFAD75C0E5D6E7DEC0BF00B0E69
:10199600646E260E636E5E0EE82EFED7632EFCD7AF
:1019A600642EFAD75B0E5D6E7DEC0BF00B0E646E4B
:1019B600260E636E5E0EE82EFED7632EFCD7642ECF
:1019C600FAD71200F0905B0E5D6E7DEC0BF00B0EFD
:1019D600646E260E636E5E0EE82EFED7632EFCD76F
:1019E600642EFAD75A0E5D6E7DEC0BF00B0E646E0C
:1019F600260E636E5E0EE82EFED7632EFCD7642E8F
:101A0600FAD75C0E5D6E7DEC0BF00B0E646E260E47
:101A1600636E5E0EE82EFED7632EFCD7642EFAD7D1
:101A26001200A19205C05DF006C05EF0C6EC0DF096
:101A360007500810D8B422EF0DF024EF0DF030EF68
:101A46000DF002D830EF0DF00500FA6E0750FD6E6E
:101A56000850FE6EFF6AFA50120012009E9227C0CE
:101A6600CCFF0B500C10D8B43BEF0DF03DEF0DF052
:101A760049EF0DF002D849EF0DF00500FA6E0B5054
:101A8600FD6E0C50FE6EFF6AFA5012001200590EDF
:101A96006F6E4AEC0CF05C0E6F6E4AEC0CF05B0E4F
:101AA6006F6E4AEC0CF05B0E6C6E010E6D6E53ECB5
:101AB60009F079EC0DF05EEF0DF007EF00F0800F06
:101AC600810F820F830F840F890F8A0F8B0F8C0F64
:101AD6008D0F920F930F940F950F960F121A030BFB
:0B1AE600131B01010101024212A220AB
:101AF2001C0E0001A46F1B0EA56FFC0EA917FA0E97
:101B0200A86F000EA76FA989F30EA917A99DA98B2B
:101B1200A40E6E6E7DEC0AF01200094A0A2A09B080
:101B220095EF0DF097EF0DF09FEF0DF05B0E5D6EF0
:101B32007DEC0BF0000E0A6E000E096E12003738B3
:101B4200392F3435362A3132332D43303D2B323A58
:101B5200030B131B232B333B030B131B434B535B13
:101B62009E900DC05DF00EC05EF0CBEC0DF0120049
:101B7200F29411C05DF012C05EF0D0EC0DF01200D4
:101B82006D50B36E6CC0B2FF12005E50B36E5DC09A
:101B9200B2FF12005E50D76E5DC0D6FF12005E50DB
:0C1BA200D76E5DC0D6FF12009E9C1200A2
:020000040030CA
:0E000000FF02091EFF8181FF0FC00FE00F40BD
:00000001FF
